{
  "contractName": "Lottery",
  "abi": [
    {
      "inputs": [],
      "stateMutability": "nonpayable",
      "type": "constructor"
    },
    {
      "anonymous": false,
      "inputs": [
        {
          "indexed": false,
          "internalType": "uint256",
          "name": "index",
          "type": "uint256"
        },
        {
          "indexed": true,
          "internalType": "address",
          "name": "bettor",
          "type": "address"
        },
        {
          "indexed": false,
          "internalType": "uint256",
          "name": "amount",
          "type": "uint256"
        },
        {
          "indexed": false,
          "internalType": "bytes1",
          "name": "challenges",
          "type": "bytes1"
        },
        {
          "indexed": false,
          "internalType": "uint256",
          "name": "answerBlockNumber",
          "type": "uint256"
        }
      ],
      "name": "BET",
      "type": "event"
    },
    {
      "anonymous": false,
      "inputs": [
        {
          "indexed": false,
          "internalType": "uint256",
          "name": "index",
          "type": "uint256"
        },
        {
          "indexed": false,
          "internalType": "address",
          "name": "bettor",
          "type": "address"
        },
        {
          "indexed": false,
          "internalType": "uint256",
          "name": "amount",
          "type": "uint256"
        },
        {
          "indexed": false,
          "internalType": "bytes1",
          "name": "challenges",
          "type": "bytes1"
        },
        {
          "indexed": false,
          "internalType": "bytes1",
          "name": "answer",
          "type": "bytes1"
        },
        {
          "indexed": false,
          "internalType": "uint256",
          "name": "answerBlockNumber",
          "type": "uint256"
        }
      ],
      "name": "DRAW",
      "type": "event"
    },
    {
      "anonymous": false,
      "inputs": [
        {
          "indexed": false,
          "internalType": "uint256",
          "name": "index",
          "type": "uint256"
        },
        {
          "indexed": false,
          "internalType": "address",
          "name": "bettor",
          "type": "address"
        },
        {
          "indexed": false,
          "internalType": "uint256",
          "name": "amount",
          "type": "uint256"
        },
        {
          "indexed": false,
          "internalType": "bytes1",
          "name": "challenges",
          "type": "bytes1"
        },
        {
          "indexed": false,
          "internalType": "bytes1",
          "name": "answer",
          "type": "bytes1"
        },
        {
          "indexed": false,
          "internalType": "uint256",
          "name": "answerBlockNumber",
          "type": "uint256"
        }
      ],
      "name": "FAIL",
      "type": "event"
    },
    {
      "anonymous": false,
      "inputs": [
        {
          "indexed": false,
          "internalType": "uint256",
          "name": "index",
          "type": "uint256"
        },
        {
          "indexed": false,
          "internalType": "address",
          "name": "bettor",
          "type": "address"
        },
        {
          "indexed": false,
          "internalType": "uint256",
          "name": "amount",
          "type": "uint256"
        },
        {
          "indexed": false,
          "internalType": "bytes1",
          "name": "challenges",
          "type": "bytes1"
        },
        {
          "indexed": false,
          "internalType": "uint256",
          "name": "answerBlockNumber",
          "type": "uint256"
        }
      ],
      "name": "REFUND",
      "type": "event"
    },
    {
      "anonymous": false,
      "inputs": [
        {
          "indexed": false,
          "internalType": "uint256",
          "name": "index",
          "type": "uint256"
        },
        {
          "indexed": false,
          "internalType": "address",
          "name": "bettor",
          "type": "address"
        },
        {
          "indexed": false,
          "internalType": "uint256",
          "name": "amount",
          "type": "uint256"
        },
        {
          "indexed": false,
          "internalType": "bytes1",
          "name": "challenges",
          "type": "bytes1"
        },
        {
          "indexed": false,
          "internalType": "bytes1",
          "name": "answer",
          "type": "bytes1"
        },
        {
          "indexed": false,
          "internalType": "uint256",
          "name": "answerBlockNumber",
          "type": "uint256"
        }
      ],
      "name": "WIN",
      "type": "event"
    },
    {
      "inputs": [],
      "name": "answerForTest",
      "outputs": [
        {
          "internalType": "bytes32",
          "name": "",
          "type": "bytes32"
        }
      ],
      "stateMutability": "view",
      "type": "function",
      "constant": true
    },
    {
      "inputs": [],
      "name": "owner",
      "outputs": [
        {
          "internalType": "address payable",
          "name": "",
          "type": "address"
        }
      ],
      "stateMutability": "view",
      "type": "function",
      "constant": true
    },
    {
      "inputs": [],
      "name": "getPot",
      "outputs": [
        {
          "internalType": "uint256",
          "name": "pot",
          "type": "uint256"
        }
      ],
      "stateMutability": "view",
      "type": "function",
      "constant": true
    },
    {
      "inputs": [
        {
          "internalType": "bytes1",
          "name": "challenges",
          "type": "bytes1"
        }
      ],
      "name": "betAndDistribute",
      "outputs": [
        {
          "internalType": "bool",
          "name": "result",
          "type": "bool"
        }
      ],
      "stateMutability": "payable",
      "type": "function",
      "payable": true
    },
    {
      "inputs": [
        {
          "internalType": "bytes1",
          "name": "challenges",
          "type": "bytes1"
        }
      ],
      "name": "bet",
      "outputs": [
        {
          "internalType": "bool",
          "name": "result",
          "type": "bool"
        }
      ],
      "stateMutability": "payable",
      "type": "function",
      "payable": true
    },
    {
      "inputs": [],
      "name": "distribute",
      "outputs": [],
      "stateMutability": "nonpayable",
      "type": "function"
    },
    {
      "inputs": [
        {
          "internalType": "bytes32",
          "name": "answer",
          "type": "bytes32"
        }
      ],
      "name": "setAnswerForTest",
      "outputs": [
        {
          "internalType": "bool",
          "name": "result",
          "type": "bool"
        }
      ],
      "stateMutability": "nonpayable",
      "type": "function"
    },
    {
      "inputs": [
        {
          "internalType": "bytes1",
          "name": "challenges",
          "type": "bytes1"
        },
        {
          "internalType": "bytes32",
          "name": "answer",
          "type": "bytes32"
        }
      ],
      "name": "isMatch",
      "outputs": [
        {
          "internalType": "enum Lottery.BettingResult",
          "name": "",
          "type": "uint8"
        }
      ],
      "stateMutability": "pure",
      "type": "function",
      "constant": true
    },
    {
      "inputs": [
        {
          "internalType": "uint256",
          "name": "index",
          "type": "uint256"
        }
      ],
      "name": "getBetInfo",
      "outputs": [
        {
          "internalType": "uint256",
          "name": "answerBlockNumber",
          "type": "uint256"
        },
        {
          "internalType": "address",
          "name": "bettor",
          "type": "address"
        },
        {
          "internalType": "bytes1",
          "name": "challenges",
          "type": "bytes1"
        }
      ],
      "stateMutability": "view",
      "type": "function",
      "constant": true
    }
  ],
  "bytecode": "0x60806040526000600560006101000a81548160ff02191690831515021790555034801561002b57600080fd5b5033600360006101000a81548173ffffffffffffffffffffffffffffffffffffffff021916908373ffffffffffffffffffffffffffffffffffffffff1602179055506114e48061007c6000396000f3fe6080604052600436106100865760003560e01c80638da5cb5b116100595780638da5cb5b1461020157806399a167d714610258578063e16ea857146102e1578063e4fc6b6d14610349578063f4b46f5b1461036057610086565b8063403c9fa81461008b5780637009fa36146100b657806379141f801461010957806384f7e4f0146101d6575b600080fd5b34801561009757600080fd5b506100a06103c8565b6040518082815260200191505060405180910390f35b3480156100c257600080fd5b506100ef600480360360208110156100d957600080fd5b81019080803590602001909291905050506103d2565b604051808215151515815260200191505060405180910390f35b34801561011557600080fd5b506101426004803603602081101561012c57600080fd5b810190808035906020019092919050505061048a565b604051808481526020018373ffffffffffffffffffffffffffffffffffffffff1673ffffffffffffffffffffffffffffffffffffffff168152602001827effffffffffffffffffffffffffffffffffffffffffffffffffffffffffffff19167effffffffffffffffffffffffffffffffffffffffffffffffffffffffffffff19168152602001935050505060405180910390f35b3480156101e257600080fd5b506101eb61058f565b6040518082815260200191505060405180910390f35b34801561020d57600080fd5b50610216610595565b604051808273ffffffffffffffffffffffffffffffffffffffff1673ffffffffffffffffffffffffffffffffffffffff16815260200191505060405180910390f35b34801561026457600080fd5b506102bd6004803603604081101561027b57600080fd5b8101908080357effffffffffffffffffffffffffffffffffffffffffffffffffffffffffffff19169060200190929190803590602001909291905050506105bb565b604051808260028111156102cd57fe5b60ff16815260200191505060405180910390f35b61032f600480360360208110156102f757600080fd5b8101908080357effffffffffffffffffffffffffffffffffffffffffffffffffffffffffffff19169060200190929190505050610896565b604051808215151515815260200191505060405180910390f35b34801561035557600080fd5b5061035e6108b3565b005b6103ae6004803603602081101561037657600080fd5b8101908080357effffffffffffffffffffffffffffffffffffffffffffffffffffffffffffff19169060200190929190505050610f8d565b604051808215151515815260200191505060405180910390f35b6000600454905090565b6000600360009054906101000a900473ffffffffffffffffffffffffffffffffffffffff1673ffffffffffffffffffffffffffffffffffffffff163373ffffffffffffffffffffffffffffffffffffffff161461047a576040517f08c379a000000000000000000000000000000000000000000000000000000000815260040180806020018281038252602b815260200180611484602b913960400191505060405180910390fd5b8160068190555060019050919050565b600080600061049761142a565b60026000868152602001908152602001600020604051806060016040529081600082015481526020016001820160009054906101000a900473ffffffffffffffffffffffffffffffffffffffff1673ffffffffffffffffffffffffffffffffffffffff1673ffffffffffffffffffffffffffffffffffffffff1681526020016001820160149054906101000a900460f81b7effffffffffffffffffffffffffffffffffffffffffffffffffffffffffffff19167effffffffffffffffffffffffffffffffffffffffffffffffffffffffffffff1916815250509050806000015193508060200151925080604001519150509193909250565b60065481565b600360009054906101000a900473ffffffffffffffffffffffffffffffffffffffff1681565b60008083905060008490506000846000602081106105d557fe5b1a60f81b90506000856000602081106105ea57fe5b1a60f81b90506004847effffffffffffffffffffffffffffffffffffffffffffffffffffffffffffff1916901c93506004847effffffffffffffffffffffffffffffffffffffffffffffffffffffffffffff1916901b93506004827effffffffffffffffffffffffffffffffffffffffffffffffffffffffffffff1916901c91506004827effffffffffffffffffffffffffffffffffffffffffffffffffffffffffffff1916901b91506004837effffffffffffffffffffffffffffffffffffffffffffffffffffffffffffff1916901b92506004837effffffffffffffffffffffffffffffffffffffffffffffffffffffffffffff1916901c92506004817effffffffffffffffffffffffffffffffffffffffffffffffffffffffffffff1916901b90506004817effffffffffffffffffffffffffffffffffffffffffffffffffffffffffffff1916901c9050837effffffffffffffffffffffffffffffffffffffffffffffffffffffffffffff1916827effffffffffffffffffffffffffffffffffffffffffffffffffffffffffffff19161480156107ce5750827effffffffffffffffffffffffffffffffffffffffffffffffffffffffffffff1916817effffffffffffffffffffffffffffffffffffffffffffffffffffffffffffff1916145b156107e0576001945050505050610890565b837effffffffffffffffffffffffffffffffffffffffffffffffffffffffffffff1916827effffffffffffffffffffffffffffffffffffffffffffffffffffffffffffff191614806108755750827effffffffffffffffffffffffffffffffffffffffffffffffffffffffffffff1916817effffffffffffffffffffffffffffffffffffffffffffffffffffffffffffff1916145b15610887576002945050505050610890565b60009450505050505b92915050565b60006108a182610f8d565b506108aa6108b3565b60019050919050565b6000806108be61142a565b60008060015494505b600054851015610f7f5760026000868152602001908152602001600020604051806060016040529081600082015481526020016001820160009054906101000a900473ffffffffffffffffffffffffffffffffffffffff1673ffffffffffffffffffffffffffffffffffffffff1673ffffffffffffffffffffffffffffffffffffffff1681526020016001820160149054906101000a900460f81b7effffffffffffffffffffffffffffffffffffffffffffffffffffffffffffff19167effffffffffffffffffffffffffffffffffffffffffffffffffffffffffffff19168152505092506109b98360000151611141565b9150600060028111156109c857fe5b8260028111156109d457fe5b1415610e3b5760006109e98460000151611191565b90506109f98460400151826105bb565b915060016002811115610a0857fe5b826002811115610a1457fe5b1415610b6d57610a3384602001516611c37937e08000600454016111b9565b945060006004819055507f8219079e2d6c1192fb0ff7f78e6faaf5528ad6687e69749205d87bd4b156912b86856020015187876040015185600060208110610a7757fe5b1a60f81b8960000151604051808781526020018673ffffffffffffffffffffffffffffffffffffffff1673ffffffffffffffffffffffffffffffffffffffff168152602001858152602001847effffffffffffffffffffffffffffffffffffffffffffffffffffffffffffff19167effffffffffffffffffffffffffffffffffffffffffffffffffffffffffffff19168152602001837effffffffffffffffffffffffffffffffffffffffffffffffffffffffffffff19167effffffffffffffffffffffffffffffffffffffffffffffffffffffffffffff19168152602001828152602001965050505050505060405180910390a15b60006002811115610b7a57fe5b826002811115610b8657fe5b1415610cd4576611c37937e080006004600082825401925050819055507f3b19d607433249d2ebc766ae82ca3848e9c064f1febb5147bc6e5b21d0adebc58685602001516000876040015185600060208110610bde57fe5b1a60f81b8960000151604051808781526020018673ffffffffffffffffffffffffffffffffffffffff1673ffffffffffffffffffffffffffffffffffffffff168152602001858152602001847effffffffffffffffffffffffffffffffffffffffffffffffffffffffffffff19167effffffffffffffffffffffffffffffffffffffffffffffffffffffffffffff19168152602001837effffffffffffffffffffffffffffffffffffffffffffffffffffffffffffff19167effffffffffffffffffffffffffffffffffffffffffffffffffffffffffffff19168152602001828152602001965050505050505060405180910390a15b600280811115610ce057fe5b826002811115610cec57fe5b1415610e3957610d0784602001516611c37937e080006111b9565b94507f72ec2e949e4fad9380f9d5db3e2ed0e71cf22c51d8d66424508bdc761a3f4b0e86856020015187876040015185600060208110610d4357fe5b1a60f81b8960000151604051808781526020018673ffffffffffffffffffffffffffffffffffffffff1673ffffffffffffffffffffffffffffffffffffffff168152602001858152602001847effffffffffffffffffffffffffffffffffffffffffffffffffffffffffffff19167effffffffffffffffffffffffffffffffffffffffffffffffffffffffffffff19168152602001837effffffffffffffffffffffffffffffffffffffffffffffffffffffffffffff19167effffffffffffffffffffffffffffffffffffffffffffffffffffffffffffff19168152602001828152602001965050505050505060405180910390a15b505b60016002811115610e4857fe5b826002811115610e5457fe5b1415610e5f57610f7f565b600280811115610e6b57fe5b826002811115610e7757fe5b1415610f6857610e9283602001516611c37937e080006111b9565b93507f59c0185881271a0f53d43e6ab9310091408f9e0ff9ae2512613de800f26b8de48584602001518686604001518760000151604051808681526020018573ffffffffffffffffffffffffffffffffffffffff1673ffffffffffffffffffffffffffffffffffffffff168152602001848152602001837effffffffffffffffffffffffffffffffffffffffffffffffffffffffffffff19167effffffffffffffffffffffffffffffffffffffffffffffffffffffffffffff191681526020018281526020019550505050505060405180910390a15b610f7185611282565b5084806001019550506108c7565b846001819055505050505050565b60006611c37937e08000341461100b576040517f08c379a000000000000000000000000000000000000000000000000000000000815260040180806020018281038252600e8152602001807f4e6f7420656e6f7567682045544800000000000000000000000000000000000081525060200191505060405180910390fd5b611014826112e6565b611086576040517f08c379a000000000000000000000000000000000000000000000000000000000815260040180806020018281038252601a8152602001807f4661696c20746f206164642061206e65772042657420496e666f00000000000081525060200191505060405180910390fd5b3373ffffffffffffffffffffffffffffffffffffffff167f100791de9f40bf2d56ffa6dc5597d2fd0b2703ea70bc7548cd74c04f5d215ab760016000540334856003430160405180858152602001848152602001837effffffffffffffffffffffffffffffffffffffffffffffffffffffffffffff19167effffffffffffffffffffffffffffffffffffffffffffffffffffffffffffff1916815260200182815260200194505050505060405180910390a260019050919050565b600081431180156111555750816101000143105b15611163576000905061118c565b814311611173576001905061118c565b61010082014310611187576002905061118c565b600290505b919050565b6000600560009054906101000a900460ff166111af576006546111b2565b81405b9050919050565b60008060009050600081840390508473ffffffffffffffffffffffffffffffffffffffff166108fc829081150290604051600060405180830381858888f1935050505015801561120d573d6000803e3d6000fd5b50600360009054906101000a900473ffffffffffffffffffffffffffffffffffffffff1673ffffffffffffffffffffffffffffffffffffffff166108fc839081150290604051600060405180830381858888f19350505050158015611276573d6000803e3d6000fd5b50809250505092915050565b6000600260008381526020019081526020016000206000808201600090556001820160006101000a81549073ffffffffffffffffffffffffffffffffffffffff02191690556001820160146101000a81549060ff0219169055505060019050919050565b60006112f061142a565b33816020019073ffffffffffffffffffffffffffffffffffffffff16908173ffffffffffffffffffffffffffffffffffffffff1681525050600343018160000181815250508281604001907effffffffffffffffffffffffffffffffffffffffffffffffffffffffffffff191690817effffffffffffffffffffffffffffffffffffffffffffffffffffffffffffff1916815250508060026000805481526020019081526020016000206000820151816000015560208201518160010160006101000a81548173ffffffffffffffffffffffffffffffffffffffff021916908373ffffffffffffffffffffffffffffffffffffffff16021790555060408201518160010160146101000a81548160ff021916908360f81c021790555090505060008081548092919060010191905055506001915050919050565b604051806060016040528060008152602001600073ffffffffffffffffffffffffffffffffffffffff16815260200160007effffffffffffffffffffffffffffffffffffffffffffffffffffffffffffff19168152509056fe4f6e6c79206f776e65722063616e207365742074686520616e7377657220666f722074657374206d6f6465a2646970667358221220efb6c16501351c0526935debc12ba06f64e0240bb8bf03c20a1cb7338c956f7064736f6c63430006000033",
  "source": "// // SPDX-License-Identifier: MIT\n// pragma solidity ^0.6.0;\n\n// contract Lottery {\n\n//   struct BetInfo{\n//     uint256 answerBlockNumber;//우리가 맞추려는 정답의 블록 number\n//     address payable bettor;//정답을 맞추면 better에게 보내줘야 함. 그래서 payable을 써주ㅕ야 함.\n//     byte challenges;\n//   }\n//   uint256 constant internal BLOCK_LIMIT = 256;\n//   uint256 constant internal BET_BLOCK_INTERVAL = 3;\n//   uint256 constant internal BET_AMOUNT = 5 * 10 ** 15; \n\n//   enum BlockStatus {Checkable, NotRevealed, BlockLimitPassed}\n\n//   uint256 private _tail;\n//   uint256 private _head;\n//   mapping (uint256 => BetInfo) private _bets;//queue\n//   address payable public owner;\n\n//   bool private mode = false;// false:devmod\n//   bytes32 public answerForTest;\n\n//   uint256 private _pot;//팟머니를 만들 곳\n\n//   constructor() public {\n//     owner = msg.sender;\n//   }\n\n//   // function getSomeValue() public pure returns (uint value){\n//   //   return 5;\n//   // }\n//   event BET(uint256 index,address indexed bettor, uint256 amount, byte challenges, uint256 answerBlockNumber,uint256 pod);\n//   event WIN(uint256 index, address bettor, uint256 amount, byte challenges, byte answer, uint256 answerBlockNumber);\n//   event FAIL(uint256 index, address bettor, uint256 amount, byte challenges, byte answer, uint256 answerBlockNumber, uint256 pot);\n//   event DRAW(uint256 index, address bettor, uint256 amount, byte challenges, byte answer, uint256 answerBlockNumber);\n//   event REFUND(uint256 index, address bettor, uint256 amount, byte challenges, uint256 answerBlockNumber); \n//   event LOUD(string str);\n//   event NUMBER(string mem, uint256 number);\n//   //정답을 알 수 없으니까\n  \n\n//   function getPot() public view returns (uint256 pot) {\n//     return _pot;\n//   }\n\n//    /**\n//   *@dev  배팅과 정답 체크를 한다.\n//   *@param challenges 유저가 배팅하는 글자\n//   */\n//   function betAndDistribute(byte challenges) public payable returns (bool result) {\n//     bet(challenges);\n//     distribute();\n//     return true;\n//   }\n\n//   function getBetInfo(uint256 index)public view returns (uint256 answerBlockNumber, address bettor, byte challenges) {\n//     BetInfo memory b = _bets[index];\n//     answerBlockNumber = b.answerBlockNumber;\n//     bettor = b.bettor;\n//     challenges = b.challenges;\n//   } \n//   function pushBet(byte challenges) internal returns (bool) {\n//     BetInfo memory b;\n//     b.bettor = msg.sender;\n//     b.answerBlockNumber = block.number + BET_BLOCK_INTERVAL;\n//     b.challenges = challenges;\n\n//     _bets[_tail] = b;\n//     _tail++;\n\n//     return true;\n\n//   }\n\n//   function popBet(uint256 index) internal returns (bool){\n//     delete _bets[index];\n//     return true;\n//     //딜리트를하면 가스가 환불이 된다. 상태 데이터베이스의 값을 없애겠다는 것임.\n//     //필요하지 않는 값에 대해서는 delete를 해주는 것이 맞다. \n//   }\n//   //bet\n\n//   /**\n//   * @dev 배팅을 한다. 유저는 0.005eth를 보내야 하고 배팅용 1byte 글자를 보낸다.\n//   *큐에 저장된 배팅 정보는 이후 distribution 에 저장된다. \n//   *@param challenges 유저가 배팅하는 글자\n//   *@return 함수가 잘 수행되었느지 확인하는 bool값\n//    */\n//   function bet(byte challenges) public payable returns (bool result) {\n//     //1. check the propter ether is sent\n//     require(msg.value == BET_AMOUNT,\"Not enough ETH\" );\n\n//     //2. push bet to the queue\n//     require(pushBet(challenges),\"Fail to add a new Bet Info\");\n//     //3. emit event log\n//     emit BET(_tail - 1, msg.sender, msg.value , challenges, block.number + BET_BLOCK_INTERVAL,_pot);\n//     return true;\n//   }\n\n//   //정답을 지정할 수 있게 setterFunction 도 만들어준다.ㅣ \n//   function setAnswerForTest(bytes32 answer) public returns (bool result){\n//     require(msg.sender ==owner, \"Only owner can set the answer \");\n//     answerForTest = answer;\n//     return true;\n//   }\n\n//   function getAnswerBlockHash(uint256 answerBlockNumber) internal view returns (bytes32 answer){\n//     return mode ?  blockhash(answerBlockNumber): answerForTest;\n//   } \n\n\n\n//   /**\n//   *@dev 배팅 결과값을 확인하고 팟머니를 분배한다. \n//   *정답실패: 팟머니 축적, 정답 맞춤: 팟머니 획득, 한글자 맞춤 or 정답 확인 불가: 배팅 금액만 획득\n//   */\n//    function distribute() public {\n//     uint256 cur;\n//     uint256 transferAmount; // 이유: 얼마나 보냈는지 찍기 위해서\n\n//     BetInfo memory b;\n//     BlockStatus currentBlockStatus;\n//     BettingResult currentBettingResult;\n    \n//     for(cur=_head; cur<_tail; cur++){\n//         b = _bets[cur];\n//         currentBlockStatus = getBlockStatus(b.answerBlockNumber);\n//         // outStatus(currentBlockStatus);\n//         emit NUMBER('currentBlock',block.number);\n//         emit NUMBER('b.answerBlockNumber',b.answerBlockNumber);\n//       //Checkable: block.number > AnswerBlockNumber && block.number < BLOCK_LIMIT + AnswerBlockNumber 1\n//         if(currentBlockStatus == BlockStatus.Checkable){\n//           // emit LOUD('체커블');\n//           bytes32 answerBlockHash = getAnswerBlockHash(b.answerBlockNumber);\n//           currentBettingResult = isMatch(b.challenges,answerBlockHash);//결과값을 가져옴\n//           //if win, bettor gets pot\n//           if(currentBettingResult == BettingResult.Win){\n//               //transfet pot/수수료를 떼가는 함수 만들자 trnasferAfterPaingFee\n//               transferAmount = transferAfterPayingFee(b.bettor, _pot + BET_AMOUNT);//아직 내가 배팅한 금액은 추가되지 않았기 때문에\n//               // pot = 9\n//               _pot = 0;\n//               //transfer여서 이렇게 쓰는 것임\n\n//               //emit Win\n//               emit WIN(cur, b.bettor, transferAmount, b.challenges,answerBlockHash[0], b.answerBlockNumber);\n//           }\n//           //if fail, bettor's money goes pot\n//           if(currentBettingResult == BettingResult.Fail){\n//             emit LOUD('실패함');\n//               //pot = pot + BET_AMOUNT\n//               _pot += BET_AMOUNT;\n//               //emit FAIL\n//               emit FAIL(cur, b.bettor, 0, b.challenges,answerBlockHash[0], b.answerBlockNumber, _pot);\n//           }\n//         //if draw, refund bettor's money\n//           if(currentBettingResult == BettingResult.Draw){\n//               //transfer only BET_AMOUNT\n//               transferAmount = transferAfterPayingFee(b.bettor, BET_AMOUNT);\n              \n//               //emit DRAW\n//               emit DRAW(cur, b.bettor, transferAmount, b.challenges,answerBlockHash[0], b.answerBlockNumber);\n//           }\n//         //Not Revealed: block.number <= AnswerBlockNumber 2\n//         if(currentBlockStatus == BlockStatus.NotRevealed) {\n//           emit LOUD('마이닝 덜 됨');\n//           break;//아직 마이닝이 되지 않았다.\n//         }\n\n//         //Block Limit Passed : block.number >= AnswerBlockNumber+ Block_LiMIT 3\n//         if(currentBlockStatus == BlockStatus.BlockLimitPassed){\n//           //refund\n//            emit LOUD('더 지나가는거');\n//           transferAmount = transferAfterPayingFee(b.bettor, BET_AMOUNT);\n\n//           //emit refund\n//           emit REFUND(cur, b.bettor, transferAmount, b.challenges, b.answerBlockNumber);\n//         }\n//          emit LOUD('아무것도 안됨');\n//         popBet(cur);\n\n//       }\n//       _head = cur;\n\n//       //Not Revealed\n\n//       //Block Limit Passed\n//     }\n//   }\n//   // function outStatus(BlockStatus blockstatus) public returns (string) {\n//   //   if(BlockStatus.)\n//   // }\n//   function transferAfterPayingFee(address payable addr, uint256 amount) internal returns (uint256){\n//     // uint256 fee = amount /100; \n//     uint256 fee = 0;\n//     uint256 amountWithoutFee = amount - fee;\n//     //transfer to addr\n//     addr.transfer(amountWithoutFee);\n//     //transfer to owner\n//     owner.transfer(fee);\n//     return amountWithoutFee;\n  \n//   }\n//   function getBlockStatus(uint answerBlockNumber) internal  returns (BlockStatus){\n//     if(block.number > answerBlockNumber && block.number < BLOCK_LIMIT +  answerBlockNumber) {\n//       emit LOUD('체커블');\n//       return BlockStatus.Checkable;\n//     }\n//     if(block.number<=answerBlockNumber){\n//       emit LOUD('드러낼 수 없음');\n//       return BlockStatus.NotRevealed;\n//     }\n//     if(block.number >= answerBlockNumber + BLOCK_LIMIT) {\n//       emit LOUD('넘겨버려');\n//       return BlockStatus.BlockLimitPassed;\n//     }\n//     return BlockStatus.BlockLimitPassed;\n//   }\n//   enum BettingResult { Fail, Win,Draw }\n\n//   /**\n//   *@dev 배팅 글자와 정답을 확인한다.\n//   *@param challenges 배팅 글자\n//   *@param answer 블록해시\n//   *@return 정답 결과\n//   */\n\n\n\n//   function isMatch(byte challenges, bytes32 answer) public pure returns (BettingResult) {\n//     //challenges  에는 0xab이렇게 들어올 것이다.ㅣ \n//     //answer 0xab...........ff 32byte로 들어올 것이다.ㅣ \n//     byte c1 = challenges;\n//     byte c2 = challenges;\n\n//     byte a1 = answer[0];\n//     byte a2 = answer[0];\n\n//     //Get first number\n//     c1 = c1 >> 4; \n//     c1 = c1 << 4;\n\n//     //0xab=>0x0a=>0xa0\n\n//     a1 = a1 >> 4;\n//     a1 = a1 << 4;\n    \n//     //Get Second Number\n//     c2 = c2 << 4;\n//     c2 = c2 >> 4;\n\n//     a2 = a2 << 4;\n//     a2 = a2 >> 4;\n//     //0xab => 0xb0 =>0x0b;\n  \n//     if(a1 == c1 && a2 == c2) {\n//       return BettingResult.Win;\n//     }\n//     if(a1 == c1 || a2 == c2) {\n//       return BettingResult.Draw;\n//     }\n//     return BettingResult.Fail;\n\n  \n//   }\n\n \n// }\n// //결과값을 겁ㅁ증해야 하는데 Bet 과 Distribute로 하면 될 듯\n// //save the bet to the queue\n// //distribute\n// //r값이 틀리면 넣고 \n\n\n\n/*******************************붙여넣기함 */\npragma solidity ^0.6.0;\n\n\ncontract Lottery {\n    struct BetInfo {\n        uint256 answerBlockNumber;\n        address payable bettor;\n        byte challenges;\n    }\n    \n    uint256 private _tail;\n    uint256 private _head;\n    mapping (uint256 => BetInfo) private _bets;\n\n    address payable public owner;\n    \n    \n    uint256 private _pot;\n    bool private mode = false; // false : use answer for test , true : use real block hash\n    bytes32 public answerForTest;\n\n    uint256 constant internal BLOCK_LIMIT = 256;\n    uint256 constant internal BET_BLOCK_INTERVAL = 3;\n    uint256 constant internal BET_AMOUNT = 5 * 10 ** 15;\n\n    enum BlockStatus {Checkable, NotRevealed, BlockLimitPassed}\n    enum BettingResult {Fail, Win, Draw}\n\n    event BET(uint256 index, address indexed bettor, uint256 amount, byte challenges, uint256 answerBlockNumber);\n    event WIN(uint256 index, address bettor, uint256 amount, byte challenges, byte answer, uint256 answerBlockNumber);\n    event FAIL(uint256 index, address bettor, uint256 amount, byte challenges, byte answer, uint256 answerBlockNumber);\n    event DRAW(uint256 index, address bettor, uint256 amount, byte challenges, byte answer, uint256 answerBlockNumber);\n    event REFUND(uint256 index, address bettor, uint256 amount, byte challenges, uint256 answerBlockNumber);\n\n    constructor() public {\n        owner = msg.sender;\n    }\n\n    function getPot() public view returns (uint256 pot) {\n        return _pot;\n    }\n\n    /**\n     * @dev 베팅과 정답 체크를 한다. 유저는 0.005 ETH를 보내야 하고, 베팅용 1 byte 글자를 보낸다.\n     * 큐에 저장된 베팅 정보는 이후 distribute 함수에서 해결된다.\n     * @param challenges 유저가 베팅하는 글자\n\n     */\n    function betAndDistribute(byte challenges) public payable returns (bool result) {\n        bet(challenges);\n\n        distribute();\n\n        return true;\n    }\n\n    // 90846 -> 75846\n    /**\n     * @dev 베팅을 한다. 유저는 0.005 ETH를 보내야 하고, 베팅용 1 byte 글자를 보낸다.\n     * 큐에 저장된 베팅 정보는 이후 distribute 함수에서 해결된다.\n     * @param challenges 유저가 베팅하는 글자\n     */\n    function bet(byte challenges) public payable returns (bool result) {\n        // Check the proper ether is sent\n        require(msg.value == BET_AMOUNT, \"Not enough ETH\");\n\n        // Push bet to the queue\n        require(pushBet(challenges), \"Fail to add a new Bet Info\");\n\n        // Emit event\n        emit BET(_tail - 1, msg.sender, msg.value, challenges, block.number + BET_BLOCK_INTERVAL);\n\n        return true;\n    }\n\n    /**\n     * @dev 베팅 결과값을 확인 하고 팟머니를 분배한다.\n     * 정답 실패 : 팟머니 축척, 정답 맞춤 : 팟머니 획득, 한글자 맞춤 or 정답 확인 불가 : 베팅 금액만 획득\n     */\n    function distribute() public {\n        // head 3 4 5 6 7 8 9 10 11 12 tail\n        uint256 cur;\n        uint256 transferAmount;\n\n        BetInfo memory b;\n        BlockStatus currentBlockStatus;\n        BettingResult currentBettingResult;\n\n        for(cur=_head;cur<_tail;cur++) {\n            b = _bets[cur];\n            currentBlockStatus = getBlockStatus(b.answerBlockNumber);\n            // Checkable : block.number > AnswerBlockNumber && block.number  <  BLOCK_LIMIT + AnswerBlockNumber 1\n            if(currentBlockStatus == BlockStatus.Checkable) {\n                bytes32 answerBlockHash = getAnswerBlockHash(b.answerBlockNumber);\n                currentBettingResult = isMatch(b.challenges, answerBlockHash);\n                // if win, bettor gets pot\n                if(currentBettingResult == BettingResult.Win) {\n                    // transfer pot\n                    transferAmount = transferAfterPayingFee(b.bettor, _pot + BET_AMOUNT);\n                    \n                    // pot = 0\n                    _pot = 0;\n\n                    // emit WIN\n                    emit WIN(cur, b.bettor, transferAmount, b.challenges, answerBlockHash[0], b.answerBlockNumber);\n                }\n                // if fail, bettor's money goes pot\n                if(currentBettingResult == BettingResult.Fail) {\n                    // pot = pot + BET_AMOUNT\n                    _pot += BET_AMOUNT;\n                    // emit FAIL\n                    emit FAIL(cur, b.bettor, 0, b.challenges, answerBlockHash[0], b.answerBlockNumber);\n                }\n                \n                // if draw, refund bettor's money \n                if(currentBettingResult == BettingResult.Draw) {\n                    // transfer only BET_AMOUNT\n                    transferAmount = transferAfterPayingFee(b.bettor, BET_AMOUNT);\n\n                    // emit DRAW\n                    emit DRAW(cur, b.bettor, transferAmount, b.challenges, answerBlockHash[0], b.answerBlockNumber);\n                }\n            }\n\n            // Not Revealed : block.number <= AnswerBlockNumber 2\n            if(currentBlockStatus == BlockStatus.NotRevealed) {\n                break;\n            }\n\n            // Block Limit Passed : block.number >= AnswerBlockNumber + BLOCK_LIMIT 3\n            if(currentBlockStatus == BlockStatus.BlockLimitPassed) {\n                // refund\n                transferAmount = transferAfterPayingFee(b.bettor, BET_AMOUNT);\n                // emit refund\n                emit REFUND(cur, b.bettor, transferAmount, b.challenges, b.answerBlockNumber);\n            }\n\n            popBet(cur);\n        }\n        _head = cur;\n    }\n\n    function transferAfterPayingFee(address payable addr, uint256 amount) internal returns (uint256) {\n        \n        // uint256 fee = amount / 100;\n        uint256 fee = 0;\n        uint256 amountWithoutFee = amount - fee;\n\n        // transfer to addr\n        addr.transfer(amountWithoutFee);\n\n        // transfer to owner\n        owner.transfer(fee);\n\n        return amountWithoutFee;\n    }\n\n    function setAnswerForTest(bytes32 answer) public returns (bool result) {\n        require(msg.sender == owner, \"Only owner can set the answer for test mode\");\n        answerForTest = answer;\n        return true;\n    }\n\n    function getAnswerBlockHash(uint256 answerBlockNumber) internal view returns (bytes32 answer) {\n        return mode ? blockhash(answerBlockNumber) : answerForTest;\n    }\n\n    /**\n     * @dev 베팅글자와 정답을 확인한다.\n     * @param challenges 베팅 글자\n     * @param answer 블락해쉬\n     * @return 정답결과\n     */\n    function isMatch(byte challenges, bytes32 answer) public pure returns (BettingResult) {\n        // challenges 0xab\n        // answer 0xab......ff 32 bytes\n\n        byte c1 = challenges;\n        byte c2 = challenges;\n\n        byte a1 = answer[0];\n        byte a2 = answer[0];\n\n        // Get first number\n        c1 = c1 >> 4; // 0xab -> 0x0a\n        c1 = c1 << 4; // 0x0a -> 0xa0\n\n        a1 = a1 >> 4;\n        a1 = a1 << 4;\n\n        // Get Second number\n        c2 = c2 << 4; // 0xab -> 0xb0\n        c2 = c2 >> 4; // 0xb0 -> 0x0b\n\n        a2 = a2 << 4;\n        a2 = a2 >> 4;\n\n        if(a1 == c1 && a2 == c2) {\n            return BettingResult.Win;\n        }\n\n        if(a1 == c1 || a2 == c2) {\n            return BettingResult.Draw;\n        }\n\n        return BettingResult.Fail;\n\n    }\n\n    function getBlockStatus(uint256 answerBlockNumber) internal view returns (BlockStatus) {\n        if(block.number > answerBlockNumber && block.number  <  BLOCK_LIMIT + answerBlockNumber) {\n            return BlockStatus.Checkable;\n        }\n\n        if(block.number <= answerBlockNumber) {\n            return BlockStatus.NotRevealed;\n        }\n\n        if(block.number >= answerBlockNumber + BLOCK_LIMIT) {\n            return BlockStatus.BlockLimitPassed;\n        }\n\n        return BlockStatus.BlockLimitPassed;\n    }\n    \n\n    function getBetInfo(uint256 index) public view returns (uint256 answerBlockNumber, address bettor, byte challenges) {\n        BetInfo memory b = _bets[index];\n        answerBlockNumber = b.answerBlockNumber;\n        bettor = b.bettor;\n        challenges = b.challenges;\n    }\n\n    function pushBet(byte challenges) internal returns (bool) {\n        BetInfo memory b;\n        b.bettor = msg.sender; // 20 byte\n        b.answerBlockNumber = block.number + BET_BLOCK_INTERVAL; // 32byte  20000 gas\n        b.challenges = challenges; // byte // 20000 gas\n\n        _bets[_tail] = b;\n        _tail++; // 32byte 값 변화 // 20000 gas -> 5000 gas\n\n        return true;\n    }\n\n    function popBet(uint256 index) internal returns (bool) {\n        delete _bets[index];\n        return true;\n    }\n}",
  "sourcePath": "C:\\Users\\SH\\Desktop\\coding_practice\\lottery-smart-contract\\contracts\\Lottery.sol",
  "compiler": {
    "name": "solc",
    "version": "0.6.0+commit.26b70077.Emscripten.clang"
  },
  "schemaVersion": "3.4.3",
  "updatedAt": "2021-10-28T14:36:31.687Z",
  "networkType": "ethereum",
  "devdoc": {
    "methods": {
      "bet(bytes1)": {
        "details": "베팅을 한다. 유저는 0.005 ETH를 보내야 하고, 베팅용 1 byte 글자를 보낸다. 큐에 저장된 베팅 정보는 이후 distribute 함수에서 해결된다.",
        "params": {
          "challenges": "유저가 베팅하는 글자"
        }
      },
      "betAndDistribute(bytes1)": {
        "details": "베팅과 정답 체크를 한다. 유저는 0.005 ETH를 보내야 하고, 베팅용 1 byte 글자를 보낸다. 큐에 저장된 베팅 정보는 이후 distribute 함수에서 해결된다.",
        "params": {
          "challenges": "유저가 베팅하는 글자"
        }
      },
      "distribute()": {
        "details": "베팅 결과값을 확인 하고 팟머니를 분배한다. 정답 실패 : 팟머니 축척, 정답 맞춤 : 팟머니 획득, 한글자 맞춤 or 정답 확인 불가 : 베팅 금액만 획득"
      },
      "isMatch(bytes1,bytes32)": {
        "details": "베팅글자와 정답을 확인한다.",
        "params": {
          "answer": "블락해쉬",
          "challenges": "베팅 글자"
        },
        "returns": {
          "_0": "정답결과"
        }
      }
    }
  },
  "userdoc": {
    "methods": {}
  }
}